:020000040000FA
:100000009028002029120000AB6C0000151200009F
:100010001512000015120000151200001512000044
:10002000000000000000000000000000D5130000E8
:1000300015120000000000009513000015120000CA
:100040005D1500005D1500005D1500005D150000E8
:100050005D1500005D1500005D1500005D150000D8
:100060005D1500005D1500005D1500005D150000C8
:100070005D1500005D1500005D1500005D150000B8
:100080005D1500005D1500005D1500005D150000A8
:100090005D1500005D1500005D1500005D15000098
:1000A0005D1500005D1500005D1500005D15000088
:1000B0005D1500005D1500005D1500005D15000078
:1000C0005D1500005D1500005D1500005D15000068
:1000D0005D1500005D1500005D1500005D15000058
:1000E0005D1500005D1500005D1500005D15000048
:1000F0005D1500005D1500005D1500005D15000038
:100100005D1500005D1500005D1500005D15000027
:100110005D1500005D1500005D1500005D15000017
:100120005D1500005D1500005D1500005D15000007
:100130005D1500005D1500005D1500005D150000F7
:100140005D1500005D1500005D1500005D150000E7
:100150005D15000010F8012B11F8013B012A28BFA2
:100160009A42F7D0D01A7047034613F8012B002AA1
:10017000FBD1181A0138704703488368DB6903B163
:1001800018476FF057007047B88C0000024883682A
:100190009B6903B118477047B88C000010B4034640
:1001A00006480A4681680C691CB11946234610BCF2
:1001B00018476FF0570010BC704700BFB88C0000A4
:1001C00010B50F4C204608F07AF8A8B1A3685B6A16
:1001D0000BB120469847FFF7D9FFA3682BB11B6CE2
:1001E0001BB10022074906489847A3681B6A0BB158
:1001F00003489847002010BD6FF01500FBE700BFD3
:10020000B88C0000090200002DE9F04F664D8DB05A
:10021000AB68DB6A23B12846984708B9FFF7ACFF03
:10022000FFF7AAFF58B1614C2368A3B9002200234D
:100230005F4804F07BFB206068B9FFF7A7FFAB685D
:10024000DB6A03BB5B4F5C4D3B78032B1FD8DFE8B9
:1002500003F02134839C2368D9681A8AAB68DB6871
:1002600073B151489847014620680C3006F0A5FD4F
:100270002068068A002EE2D101F05AFC2660DEE7F3
:100280006FF05701F0E7484898470028DAD10DB0E1
:10029000BDE8F08F494C01212046FFF77FFF002881
:1002A000F5D02078431E012B01D90528CCD105F0CB
:1002B000D0FE012328603B70C6E7DFF800B1DFF80D
:1002C00000A19BF8000005F0C4FE2968401A5044C4
:1002D000FFF764FF2B6804461E1A2E60002E50D1D3
:1002E00001230022CDE900B30620002301F08EFD9A
:1002F000DFF8D0908046C9F8000008B93870C6E72A
:100300009BF80000022822D005281BD0012801D12B
:100310009AF802602E6005F09CFE2949024608F119
:100320000C0006F038FDD9F800000C3006F04DFD49
:100330002B6898420ED2D9F8000001F0F9FB032394
:100340003B701EE0BAF80230C3F30D06E2E7BAF8DC
:100350000260DFE70223F3E71A4E296833681A8A3E
:10036000D8681044FFF71AFF31682E680B8A361AD6
:10037000034404460B822E601EB9134808F00FF99F
:100380003E70002C7FF460AF81E7296803A8212923
:1003900028BF2121FFF702FF2B6804461B1A2B60A0
:1003A000002BEED1CCE700BFB88C0000D0090020B4
:1003B0008402002025130020CC09002024130020F3
:1003C00020130020C80900206C02002038B5094D18
:1003D0004FF0FF324FF0FF33284604F0A7FA0446EF
:1003E00001F064FD10B1204601F0A2FB04F05EFFB5
:1003F000EEE700BF6C02002070B5184888B001F02D
:1004000061FD00220023CDE9062300236FF00802DE
:10041000CDE90133CDE9032300934FF48062104B03
:100420001049114804F012FD10490F4808F042F934
:100430000A4D0F4E0F4C4FF0FF324FF0FF3328465E
:1004400004F074FA0146304608F0A9F8A3685B6925
:10045000002BF0D020469847EDE700BF5402002063
:10046000CD030000501300205003002074920000C0
:1004700084020020B88C0000014B1B68184700BFA5
:100480000000002030B585B004460D461022002142
:10049000684608F094FB02238DF80230044B2A468C
:1004A00021466846019305F079FB05B030BD00BFD9
:1004B0007904000080B505460E461746984604F0BC
:1004C00095FF034608F084FB0446DFF81890424687
:1004D00049F8003039463046A84754F8090000F082
:1004E0000BFF00BF080000002DE9F047058B044614
:1004F0002807904611D4022905F0070540F0CC806A
:10050000204606F06DF878B10138218B042811D807
:10051000DFE800F0C2106D85950001290CBF45F0A1
:10052000100545F02005258388F31188BFF36F8FF0
:10053000BDE8F08701F0070AAA4500F0A580002772
:10054000B9463E46A368002B00F0BC8041F008018C
:10055000218388F31188BFF36F8FA168002900F011
:10056000BA800D68002900F0B68033465246204616
:10057000D1F80480C047002D76D02B6829461D464F
:10058000F0E701F007035A1F012A1BD8002221F0CF
:100590000701062B276889B2C4E9002209D13B462E
:1005A00003E0628B013262831B68002BF9D141F0BA
:1005B00002012046218306F013F800287AD041F08A
:1005C000200176E0042B0AD121F0070189B22046F0
:1005D000218306F005F810B141F020012183218B21
:1005E00001F0070AAA454FD00027B946AAE72369B8
:1005F00021F0070141F00601062DD3F80090218378
:100600002DD1B9F1000F3FD041F00801218388F3CB
:100610001188BFF36F8F20463949C84729E021F080
:100620000701236941F0040189B2042DD3F8049035
:100630002183E6D000274FF0040A3E4682E721F0EE
:100640000701236941F0050189B2052DD3F808900F
:100650002183D6D000274FF0050A3E4672E70027D7
:100660004FF0060A3E466DE72B4687E7B9F1000FCB
:10067000D1D1EFF31188202383F31288BFF36F8F5A
:10068000238B23F008032383258BEA062ED525F040
:100690001003238305F007056669218B002EBFF642
:1006A00070AF00232768C4E9003321F0070141F04F
:1006B00001012183218B4FF0000901F0070AAA45AF
:1006C0007FF440AF002F9CD041F00801218388F3D4
:1006D0001188BFF36F8F002FC8D03D68394633466D
:1006E0005246204605F0A8FF2F46F4E7AB067FF5FB
:1006F0001BAF25F02003238305F0070500E700BFAB
:1007000065660000034A13680BB952681360002045
:10071000704700BF0400002030B50C460E4985B07C
:100720000291D0F8D4110546CDE9003100F1F00175
:100730004FF0FF33204603F027FC50B9012384F823
:100740006C30D5F8D03123B1204605B0BDE830403B
:10075000184705B030BD00BFA769000038B50C468A
:100760001146054606F021F9034638B928460449E2
:1007700006F01BF903460020236038BD0120FBE78B
:10078000A29400002DE9F04F0123814605694668D7
:1007900087B005F56377D7E8EF2F002A03D1C7E8C4
:1007A000E13F0029F7D10CBF1A46002240F0B48087
:1007B000B368B16A05F5F8781C1F104606F079F9A0
:1007C000844272D8013A00F0A180B2FA82F24FF06E
:1007D0000044D44072682046073222F00302C5F874
:1007E0008822B16A06F065F9C5F88C02B36A404602
:1007F0006343033323F0030302EB4302230103EBC0
:100800004403093323F0030303EBC403C5F8802238
:100810001A440832C5F87C227368C5F88442C5F8CA
:1008200078323F4BC5E9B363D9F80030C5F82432BC
:10083000316800F0DFF90446002834D1D9F810B04F
:10084000D9F804A0D9F800300BF53A790590049353
:100850004846DAE90734012B08BF103C07F01EFFB9
:10086000DAF824002F4904AB01EB80214FF48062B9
:1008700048460093234604F031FA2B490BF53670B5
:1008800007F0C5FEDAE9050183685C684CB15B4698
:10089000264AA047044630B9DAE9050183681B6996
:1008A0002BB96FF05704002129E0013285E70122BE
:1008B000984704460028F6D11D4B2846C5F8D0318C
:1008C0001C4BC5F8D4311C4B0393D5F83832029336
:1008D000D5F83032CDE90083D5F89032B26AD5F838
:1008E000881300F04FF904460028DCD105F1F00030
:1008F00003F0F0FB0028C5F890030ADB022138461C
:1009000006F087F8204607B0BDE8F08F6FF00B04C3
:10091000C9E76FF01504C6E76FF07704F2E700BF90
:10092000FD69000050170020E3690000D76900004E
:100930003D090000896B0000436A000013B50446BE
:1009400040B100230122CDE90032074BD0E9091262
:1009500003F0CAFA236F1B6823B1606F02B0BDE8D1
:100960001040184702B010BDA294000013B5044611
:100970000846216901F56371D1E8AF1F022910D142
:1009800093B1A0B10121CDE900311346D0E909129C
:1009900003F0AAFA074B984208BF6FF00B0002B0B1
:1009A00010BD6FF00F00FAE76FF04C00F7E76FF043
:1009B0000100F4E72EF8FFFF2DE9F74388461546BE
:1009C000066906F56373D3E8AF3F022B5FD1136866
:1009D00023B96FF0150003B0BDE8F0831B78002B3E
:1009E000F7D0D6F88893B9F1000F33D106F5EC773C
:1009F0004FF0FF324FF0FF33384603F0E3FE30464E
:100A00002A6801A9FFF7AAFE019C1CB9384605F027
:100A1000FEFFDEE705F1080323676B6984F86C903D
:100A20006367646460B1384605F0F1FF21463046E3
:100A3000A36E2A68FFF770FE0020C8F80040CAE7DE
:100A40002022296804F1480008F03AF8384605F0F9
:100A5000DEFFF1E730460F4905F0A7FF0446002806
:100A6000B7D005F1080303676B694064436700234F
:100A700080F86C3020222968483008F021F822469E
:100A80000121304600F060F80028D5D0A1E76FF0D2
:100A90000F00A0E7A294000010B50C46006900F515
:100AA0006373D3E8AF3F022B0FD189B10A4900F538
:100AB000367007F0D8FD204607F039F9782200217A
:100AC000204608F07CF8002010BD6FF00F00FBE717
:100AD0006FF00100F8E700BFD40900202DE9F04FC6
:100AE00005460E4690460027D0F8C4A085B0AAF56A
:100AF000BE7421463046FFF72DFBE0B9114BA4F13F
:100B0000480B0293DAF810303246CDE900832946CB
:100B10004FF0FF335846AAF5E27903F035FA60B991
:100B20007823012203FB079383F86C20DAF80C305A
:100B30000BB158469847783417B105B0BDE8F08F2F
:100B40000127D6E7B76B00001FB5144690B18AB1F4
:100B5000012912D10A4B00F1F0010293D0F8D431EF
:100B6000483201934FF0FF332046009303F00CFA14
:100B700004B010BD6FF01500FAE70020F8E700BFE1
:100B8000B76B00002DE9F04387B00E46DDE90E811A
:100B90001446DDE910251F4630B329B3DFF850C0F5
:100BA00000F1F009002D08BF65469EB9CDE9034468
:100BB00000F5E2742046059607F053FB03ABCDE940
:100BC00000432A463B464146484603F0FDFA07B03B
:100BD000BDE8F083002241460E9248462A4607B0FF
:100BE000BDE8F04303F046BC6FF01500EFE700BF2F
:100BF000DD0A0000F0B50E46044689B0002872D028
:100C0000436B0BB9394B436301232246E363002353
:100C1000D4F8981004F1400042F8301FCDE90133B8
:100C20004FF0FF330093D4F89C3006F054FD304A67
:100C300006AB92E8030083E80300184603F05AF875
:100C40000546D8B904F1340003F036F80546A8B9D2
:100C5000616B284805AA06F01AFD054670B9059B88
:100C60009A6872B10C33D4F89400C4F8A03005F03F
:100C7000D3FFC4F8D40030B96FF00B05284609B093
:100C8000F0BD0346EFE7D4F8940005F0C5FFC4F8C3
:100C9000D8000028F0D0D4F88C30D4F8A010C4F8D4
:100CA000A8300423C4F8AC30C4F8C4300223A362D3
:100CB000114BB4F89420D4F8D470C4F8B810C4F828
:100CC000D010D4F89010236204F1A403A4F8B0204B
:100CD000C4F8A470C4F8C010A4F8C820C4F8BC00BC
:100CE000A661E362CAE76FF01505C7E780920000CE
:100CF000308F00008A920000848F0000014B036057
:100D000000207047B08F000008B5044805F05BFC78
:100D1000BDE80840024805F056BC00BF92920000B2
:100D2000C7920000014804F0F7BD00BFB08F00007B
:100D300038B5044618B90F4B0F485B68984761688F
:100D4000B1F5683F10D0B1F5680F0DD00B4DA94239
:100D50000AD011F46861206807D00146084807F0FE
:100D60006EFB00232360656038BD142207F027FF67
:100D7000F9E700BF80010020F59200002C5F5CA91C
:100D8000FC0E002008B560B34368B3F5683F0ED091
:100D9000B3F5680F18D0144A934220D000684FF082
:100DA000FF324FF0FF3303F00DFD58B115E0012283
:100DB0000368D3E8EF1F002903D1C3E8E02F002820
:100DC000F7D10AD1002008BD0368084A1B7803F553
:100DD000807352F82330002BF4D00548F3E7054820
:100DE000F1E76FF4E040EEE72C5F5CA900000350F0
:100DF000E98FFFFFEA8FFFFF08B520B34368B3F523
:100E0000683F09D0B3F5680F13D0114A93421DD043
:100E1000006803F04FFD14E000220368D3E8EF1FE1
:100E2000012903D1C3E8E02F0028F7D109D00948F0
:100E300008BD00210368084A1B7803F5807342F857
:100E400023100020F4E76FF4E040F1E70348EFE7F8
:100E50002C5F5CA9E98FFFFF00000350EA8FFFFFC2
:100E600010B5044618B91D4B1D485B689847636868
:100E7000B3F5683F2FD0B3F5680F2CD0194A9342D1
:100E800019D1236803BB4FF0FF324FF0FF332146E7
:100E9000154803F069FC08B923681BB90F4B1348C8
:100EA0005B68984714220021206807F088FE4FF401
:100EB0006863636008E0B3F5683F0DD83A2B03D050
:100EC00040F6BA629342DED1206807F0F0FA636818
:100ED00043F03A03636010BD054AF3E78001002048
:100EE000F59200002C5F5CA9FC0E00201B93000013
:100EF0003A00003A08B5064940231422054807F095
:100F000090FABDE808400449044804F077BD00BFEA
:100F1000FC090020FC0E0020B88F0000CC8F0000E0
:100F200030BFFFF7FDBF00BF2DE9F04105460B4E76
:100F3000DFF82C80324606EB0807CC1B2046094917
:100F400007F030FEA01942460021083C07F037FEAA
:100F50006C6707F10800BDE8F08100BF00000000E9
:100F600004000000308F0000074A936893F90E10C8
:100F7000002907DB526993421FBF044A536843F0BC
:100F800080535360704700BF1011002000ED00E057
:100F9000154B9A6A12F0007F9A6A14BF1E201D201A
:100FA00012F0807F9A6A18BF1F2012F4801F9A6A7D
:100FB00018BF022012F4002F9A6A18BF212012F4E1
:100FC000802F9A6A18BF222012F4003F9A6A18BF35
:100FD000232012F4803F9A6A18BF24206FEA02424D
:100FE0006FEA12429A62704700ED00E010B5194BAB
:100FF0000246986A9C6A10F4805F14BF172016207E
:1010000014F4006F9C6A18BF1820A40509D5986BCA
:10101000986A000404D51AB19A6A22F400429A62CE
:1010200019200C4B9A6A12F4806F9A6A18BF1A2022
:10103000D2050CD49B6A13F4005F18BF1C20054A2C
:10104000936A43F47F43936200230B7010BD1B200F
:10105000F5E700BF00ED00E010B51C4B0246986AB2
:101060009C6A10F0100F14BF1120102014F0080F0C
:101070009C6A18BF1220A40709D5586B986A00060D
:1010800004D51AB19A6A22F080029A6213200F4B9B
:101090009A6A12F0010F9A6A18BF142012F0200FFA
:1010A0009A6A18BF1520D40658BF9B6A074B9A6AE4
:1010B000920642BF5A6A22F400525A629A6A42F079
:1010C000FF029A6200230B7010BD00BF00ED00E02C
:1010D000F0B5474B04465B6800258BB0C3F30803AB
:1010E00085F31188BFF36F8F02F07F40B0F17F4F1F
:1010F00011D102F00C0008280DD010074CBF0C468F
:1011000001250022033B8DF80720032B05D8DFE8DB
:1011100003F02462665F2C46F3E700239DF8072066
:10112000CAB902AE04F1200732462068616808346B
:1011300003C2BC421646F7D1099A002D53D0C2F320
:10114000080121B96FEA52226FEA42220992184639
:1011500002A905F0A0FD0BB0F0BD254BDA6A91079E
:10116000DBD4DA6A002AD8DBDA6A5200D5D55A69AC
:10117000A16942F480725A61BFF34F8FBFF36F8F42
:101180005A6931F8021C22F480725A61BFF34F8F02
:10119000BFF36F8F4DF60272914209D09A6AD2B2B4
:1011A00042B101200DF10701FFF756FF0346B5E7F5
:1011B0002368B3E79A6A12F47F4F05D001200DF13E
:1011C0000701FFF713FFF1E79B6AB3F5803FA4D354
:1011D000FFF7DEFEEAE700200DF10701E4E700205B
:1011E0000DF10701EDE722F4FF7222F00102ADE7F5
:1011F00000ED00E0064B5A6942F010025A615A694C
:1012000042F480625A615A6922F008025A617047BA
:1012100000ED00E0EFF30880EFF3098101B57246BD
:10122000FFF756FF01BD00BF002080F31488BFF315
:101230006F8F002080F30A8880F30B8801F046FE50
:1012400000200E490860BFF34F8F0D4880F30888D7
:1012500000F02CF8202080F311880A484FF4006138
:10126000401880F30988EFF314800221084380F3CB
:101270001488BFF36F8F00F003F9000094ED00E0D5
:1012800090280020501B0020002318460649D1F862
:101290009020C2F30722934200DB7047C1F89830D8
:1012A000C1F8A0000133F6E700ED00E010B572B61A
:1012B000002484F31388FFF7E7FF23464FF0FF3045
:1012C0000C4A03F120010133102B42F82100F8D120
:1012D00000234FF0FF30074A03F160010133102B68
:1012E00042F82100F8D162B6BFF34F8FBFF36F8F82
:1012F00010BD00BF00E100E0084B9B6883420BD1AA
:10130000EFF3058343B1064B5A6842F080525A60AE
:101310005A6A22F400425A6207F0A0BA1011002063
:1013200000ED00E06FF00A01084A9368D9670849A8
:1013300098674B6843F080534B60002383F3118818
:10134000BFF36F8F9368D86F704700BF10110020F4
:1013500000ED00E0EFF31183202383F31288BFF345
:101360006F8F4FF00061084A53699360074A5160DC
:10137000596F074A116000219A6F996782F31188AB
:10138000BFF36F8F704700BF1011002000ED00E029
:10139000180F00200E498A684FF030001044EFF318
:1013A000098C80E8F01F74467046FFF7D3FFA6460D
:1013B00007498A6802F1300090E8F01F8CF3098831
:1013C00002F1000004B505F07BFCBDE80440704765
:1013D000101100201EF0040F0CBFEFF30880EFF394
:1013E0000980816911F8021C0229FFD001B505F0BE
:1013F00058FC01BD40B2002807DB01234109034A24
:1014000000F01F00834042F82130704700E100E007
:1014100040B200280CDB01220649430900F01F00FE
:101420008240203341F82320BFF34F8FBFF36F8FEB
:10143000704700BF00E100E0054B420953F822204D
:10144000012300F01F0003FA00F01040704700BFB6
:1014500000E100E040B2002801F10101ACBF00F161
:101460006040064B4FEA4111C9B2ABBF00F5614085
:1014700000F00F0080F800131954704714ED00E0DD
:101480000B4A08B50B4B22F07F029A60BFF34F8FD7
:10149000BFF36F8FD3F8882022F47002C3F888203E
:1014A00003F08EF804F040F800F04CF803F0C8F8B0
:1014B0000000000000ED00E042F8203C009B0B49DA
:1014C00042F81C3C019B21F0010142F8183C029BB0
:1014D00042F8081C42F8143C4FF0807342F8043C78
:1014E0000023203A02658367704700BFB5040000FF
:1014F00000B50D4B15469860426F0C4B0E461A60B6
:10150000436E83F30B882C4686F309884FF0000066
:10151000074B984720464FF000014FF000024FF074
:101520000003044C204700BF10110020180F0020BA
:10153000C96C0000B50400001022014B1A6170470D
:1015400000ED00E0002320210348C2180133452BA1
:1015500082F80013F9D1704700E100E008B5EFF31D
:101560000583064A103B02EBC30152F83300496879
:101570008847BDE80840FFF7F7BC00BF088D0000B2
:101580001FB5094C094A23460121094800F0FAF821
:1015900000230393074B0121E41A01A8019302944D
:1015A00000F0FAF804B010BD000007200000002091
:1015B000DC8F00005003002010B50C7A0B6804F09B
:1015C0001F0223F01F031A43CB68640923F01F0393
:1015D000054943EA440343F00103C1F89800C1F808
:1015E0009C20C1F8A03010BD00ED00E010B5074B05
:1015F000D3F89030C3F30723013B984202D8FFF79A
:10160000DBFF10BD6FF01500FBE700BF00ED00E051
:101610002DE9F04F0F46144606464FF000084D4D99
:1016200085B0B84580F29280D6F80490B9F1000FE9
:1016300036D0B9F11F0F40F2878019F01F0F40F02C
:101640008380D6F800A01AF01F0F7DD1504605F018
:1016500077FB834609EB0A00013805F071FB8345EF
:1016600072D11BF1160F6FD05C456DDDC5F898B0D7
:10167000D5F89C10C5F898B0D5F8A03021F01F011E
:1016800043F01F0AD6E900321A44994202F1FF39A9
:101690001ED1CA4508D131465FFA8BF005F059FBDF
:1016A00008F101080C36BCE73146C5F898B0D5F80A
:1016B0009C3022F01F0203F01F031343C5F89C3037
:1016C000E0B205F046FB10F1160F3DD0441CE7E7F1
:1016D000C5F898B0D5F8A020013B23F01F0302F015
:1016E0001F021343CA453146E0B2C5F8A030E8D026
:1016F00005F02FFB10F1160F26D0C5F898B0D5F8DD
:101700009C209DF808300AF1FF3A62F304038DF83B
:101710000830D5F8A0309DF808205B0863F3471225
:101720008DF80820D6E900321344009323F01F03FC
:101730005344A3EB0903013023F01F036946C0B2F1
:101740000393FFF753FFBEE76FF01504204605B083
:10175000BDE8F08F00ED00E00522044BC3F89420B3
:10176000BFF34F8FBFF36F8F704700BF00ED00E0F6
:10177000BFF35F8F0022024BC3F89420704700BF75
:1017800000ED00E010B5034C2278FFF741FF207018
:1017900010BD00BF261300202DE9F74F294D8A46C2
:1017A00006464FF00008AB46274FD0451BDAD6F867
:1017B0000490B9F1000F3FD031680846019105F05F
:1017C000BFFA0199044609EB0100013805F0B8FAA7
:1017D00084424FF014021D4B08D002FB08F36FF057
:1017E00015024BF8032003B0BDE8F08F14F1160F7B
:1017F0002C60F8D01978A142F5DD02FB08B0C7F8DB
:101800009840C7F89840D7F89C4000F10801007B49
:1018100064F304000871D7F8A0000C79400860F365
:1018200047140C71D7F89C1021F01F016960D7F89C
:10183000A01021F01F01296108F1010814350C36B0
:10184000B3E700BF1C0F002000ED00E026130020CE
:10185000F0B54149414CD1F890302568C3F30723D6
:101860009D4287B075D80020FFF782FF3C4BC1F83E
:10187000C030854216D13B4C01A82570FFF73EFAD7
:1018800000250646384FAE4213D100202378324956
:10189000D1F89020C2F30722934254DBFFF75CFF9C
:1018A00000202FE0616801EB0011FFF785FE013099
:1018B000DFE70199280101EB0513DA683A40B2F538
:1018C000001F21D0B2F5800F2BD0B2F5801F38D188
:1018D0005A689B680958013B22F01F00034401200D
:1018E000844623F01F0340EA4C10CDE902218DF815
:1018F000100002A920780593FFF778FE00281DDA72
:101900006FF0150007B0F0BD5A689B680958013B9D
:1019100022F01F0003444FF0020C012023F01F03AC
:10192000E1E75A689B680958013B22F01F00034415
:101930004FF0000C062023F01F03D4E72378013377
:10194000237001359FE7C1F89830C1F8A00001333A
:101950009EE74FF0FF30D5E700ED00E0E88F000094
:10196000AAFF4400261300200000F0FF08B5064936
:10197000064821F00701C1F1005202F5E02204F00F
:10198000C8FD002008BD00BFF3600020300F00201C
:1019900070B541690446867A0A4D59B1437ADB072E
:1019A00006D42C2303FB06535B6A1B689B6898478D
:1019B000002363612C20214606FB0050BDE87040E7
:1019C00006F0F8BD9C0200202C21827A054B01FB19
:1019D00002339A6A1B7F801A1B3323F00303B0FB88
:1019E000F3F070479C02002038B52C24827A064B15
:1019F00004FB02335B6AD3E901240C601568FFF72E
:101A0000E3FF04FB005038BD9C0200202DE9F04F9D
:101A100085B00546684691461C4690469A46039115
:101A200006F079FFDDE90067EFF3118B202383F3E4
:101A30001288BFF36F8F698B002942D02B8B8B42AA
:101A400026D900220023284602F070FF0446F8B190
:101A50008BF31188BFF36F8F039B002B4FD032465F
:101A60003B46684606F07BFF2C21A27A2C4B204691
:101A700001FB02335B6A03A91B681D68DDE90023D3
:101A8000A847606100283BD12046FFF781FF31E085
:101A9000698B4B1E6B838BF31188BFF36F8F2B7F8A
:101AA0002A8BAC6A1B3323F00303521A02FB034454
:101AB0001B4B1C4AEB1A9B105343A3722B7FE37200
:101AC000CAE78BF31188BFF36F8F54EA090409D07A
:101AD00007F07EF8144A154B12589A420ABF8846FE
:101AE000C846C24642465346284602F01FFF0446F7
:101AF0000028B1D10024204605B0BDE8F08F636115
:101B0000012300252381039B29466382E27A6560D5
:101B100004F1180007F053F863692582E360EAE7EF
:101B20009C020020A38B2EBA080000008808002029
:101B300070B52C250B4C00B970BD037A4668013B8B
:101B4000DBB20372002BF7D1C3604360837A05FBDD
:101B500003431B6A13B198473046ECE7FFF718FFC1
:101B6000FAE700BF9C02002000F01F0240090DD0E0
:101B700001280DD1094B03EB8203D3F8002222F098
:101B8000E04242EA0171C3F800127047044BF2E7E9
:101B90000023803253F82230FFDE00BF002884503B
:101BA0000025845038B50124134B144DC3F800456B
:101BB00002230321C5F8D0360020FFF7D5FF2046C9
:101BC0000321FFF7D1FFC5F804472146C5F80449B2
:101BD0002120C5F8004BFFF7C7FF21462020FFF763
:101BE000C3FF21460B20FFF7BFFF21460A20FFF766
:101BF000BBFF002038BD00BF001000500040005067
:101C000007B50DF1070005F00DFC114B98421CD1F2
:101C10004FF480620F4B1049C3F8B8254FF40062AF
:101C2000C3F83C259DF8070005F0F0FB0B499DF833
:101C3000070005F0E6FB01209DF80730984001F011
:101C400063FA002003B05DF804FB6FF00B00F9E7C6
:101C50000000AD0B00A002502CA0025028A10250A1
:101C6000052370B5144D154E2C780134B4FBF3F3F5
:101C700003EB8303E41A05F0B2FB114A137823B196
:101C800056F82430C01A072814D94FF05023D3F83F
:101C9000141141B10021C3F81411D3F814312C7080
:101CA0000CB9012313702C7805F099FB46F8240039
:101CB000012070BD0020FCE7281300203C0F00200D
:101CC0002713002048B1054B054A1B68B3FBF2F30C
:101CD0005843044B43F0010318477047C0000020ED
:101CE00040420F00508F00000149024804F0C7BC79
:101CF0001C900000500F00204FF47F032DE9F041AD
:101D0000D3F830210646072A0D46D3F8343120D1C6
:101D1000023B032B02D8124AD35CD3B14FF05024BC
:101D20004FF0010800270520C4F81886C4F814767F
:101D300005F065FB4046C4F8148605F060FBC4F866
:101D40001476C4F8187630462B46BDE8F0410021E1
:101D500018474FF050230022C3F81426F3E700BFC2
:101D6000579300001FB578B100230193039301231B
:101D700069460848029304F095FC029B9B0700D13A
:101D8000039B05B05DF804FB024805B05DF804EB69
:101D900004F0DFBC500F002010B50E4B0C461B7832
:101DA000012B0BD1097E03290FD0052902D001296F
:101DB0000DD1042104F10C0004F0F6FF064B21467E
:101DC000186806F0ECFB002010BD0221F2E76FF06E
:101DD0001500F9E7E00100206C0F0020052838B558
:101DE000054608D82A21C140C90704D5064804F091
:101DF000CAFF044610B90024204638BD01210C302A
:101E000004F0C5FF2576F7E7200300202DE9F04117
:101E10000446DDE90667062829D8DFE800F0042833
:101E200036281B281D001D4804F0ADFF0546F0B103
:101E300000F10C080121404604F0A9FF2C76BEB148
:101E4000B7B1404604F0C1FF874220D92846FFF7CA
:101E50006FFE0CE01248E7E712490978012906D124
:101E60003478022C07D0052C09D0012C0AD000258B
:101E70002846BDE8F0810C480136013FD4E7042430
:101E80000748F9E700240548F6E70748CCE73A4653
:101E90003146404604F07FFFEAE700BFC802002059
:101EA000F4020020E00100209C020020038A014689
:101EB00023B1034B186883689B681847122070474A
:101EC0005000002010B5084B084C1860206806F040
:101ED000F6F930B1206806498368BDE810401B68F8
:101EE00018476FF0120010BD6C0F0020500000204A
:101EF000991D00002DE9F74F064600780D4604288D
:101F00009246D2F810B001F1FF3325D0052873D0E6
:101F100002284AD1032B48D9002200230320FFF7CF
:101F20005DFF0446002840D00422D6F8013000F1BD
:101F30000C0738460DEB0201019304F02CFFBDF8AD
:101F40000630053D9D4246D1384604F03EFF8542AD
:101F500041D82A46711D44E0012B26D973783E2BC7
:101F600028D1F378022B23D00D2B23D13379012BE9
:101F700020D1B6F80570C7F30017B6F80130033D5D
:101F8000B5EB132FADF804300FD1AFB14FF000080F
:101F90004FF0000942464B4639469DF8040004F0D4
:101FA00024FF044658B9002FF4D003B0BDE8F08FE9
:101FB0000127E2E70027E0E74FF4A028E8E700F177
:101FC0000C07022201A9384604F0E5FE384604F069
:101FD000FCFE854203D92046FFF7AAFDE5E72A4625
:101FE000F11C384604F0D7FE21465046DBF800309D
:101FF00003B0BDE8F04F1847032BD6D900220023C9
:10200000FFF7ECFEDFF83880044698B10422D6F8DA
:10201000013000F10C0738460DEB0201019304F08A
:10202000BAFE0023C8F80030BDF80630053DC3F302
:102030000D0387E7D8F800300133C8F80030B4E763
:10204000700F0020102208B5034B0120C3F8402474
:10205000FFF788FE002008BD00300050084B70B527
:10206000C31A0D4607499B100446594340220648AF
:1020700004F01DFF2B4601462046BDE8704018477E
:10208000880F0020B76DDBB67C8C0000402373B551
:102090000B4C0093041B0B460D460A49A4106143E8
:1020A0000646094A094804F02EFF011E05DA3046AB
:1020B0002B4602B0BDE87040184702B070BD00BFAB
:1020C000880F0020B76DDBB6716F00007C8C0000BC
:1020D00010B5EFF31184202383F31288BFF36F8FC1
:1020E000074A136823F00201DB07116002D40120C4
:1020F00005F04BFA84F31188BFF36F8F10BD00BF5A
:10210000281000202DE9F84300220321064605206F
:10211000FFF7A0F9114800F0FDFF114B984219D1CB
:1021200001F008F800244FF01C090C27DFF8348078
:102130003569414609FB045004F0A1FA002807DB89
:10214000012307FB04551C44042CAB67F0D100208D
:10215000BDE8F8836FF00400FAE700BF69220000D1
:102160000000AD0B749000007FB500220123CDE983
:10217000022304ABCDE90433094A6B46CDF800D005
:10218000CDF804D004F0EDFE002805DB4FF48042CA
:102190000023684602F020FC07B05DF804FB00BF96
:1021A000A76F00000C22104B014602FB00330020F9
:1021B00030B4D3E91C521867EFF31180202484F364
:1021C0001288BFF36F8F9C6F04F0C00444F00204C8
:1021D0009C6780F31188BFF36F8F1DB12B4630BC15
:1021E0000248184730BC7047880F00207C8C0000E4
:1021F00010B4EFF31182202383F31288BFF36F8FA3
:102200001748016841F002040460C80707D482F34C
:102210001188BFF36F8F012010BC00F0A3BF4FF0F7
:102220005021D1F80C04D1F80C14C907EFD5EFF305
:10223000118083F31288BFF36F8F0A498B6F03F00D
:10224000C00343F002038B6780F31188BFF36F8FE5
:1022500082F31188BFF36F8F002010BCFFF7A2BF7D
:1022600028100020880F0020062812D8DFE800F090
:10227000040F1111110D0B00064B986F10F00700A1
:1022800007D1FFF78FBF0220FBE70320F9E701200A
:10229000F7E77047880F00202DE9F041012207463B
:1022A0003649D1E8EF3FC1E8E02F0028F9D133B932
:1022B000334934484B60CB608A6004F0F3F97B1EED
:1022C000012B2BD8012F07D14FF05023D3F81C340A
:1022D00003F00303022B21D006F0E6F90546F8B916
:1022E000294B1B78E3B14FF0502302220646C3F876
:1022F00008234FF05024DFF89480D4F81824D4F841
:102300001834D20315D503F00303022B01D0012F9B
:102310000FD16DB386F31188BFF36F8FBDE8F081E5
:10232000EFF31186202383F31288BFF36F8F01250B
:10233000DFE7C5B1304604F0E7FCD4F81835DBB26E
:10234000012BDAD1D4F80421002AD6D00022C4F817
:102350000421D4F804210222C4F818252022C8F848
:102360008021A360C9E70021212003F021F8E4E7E0
:102370004FF050230222C3F80423CFE7840F00203C
:10238000740F0020A40F00204B13002000E100E098
:10239000F0B5406801F01F04057B87B044EA45149E
:1023A0000569002D63D0B2F5001F00F1100506D1BC
:1023B0002146284605F069F9002007B0F0BD002746
:1023C000B2F5800F01AE0197776039D1B3F1007F8C
:1023D00014BF052304238DF804300023CDE90463E2
:1023E0000393836823FA01F111F001011AD1B2F1CC
:1023F000A07F17D104F01F03620903F180032AD0E4
:10240000012A3AD11E4A52F82330DB070AD40DF1D3
:10241000030632462146284601F0C8F9194B984276
:102420001BD002962146284603AA01F07BF8164BE2
:1024300098421FD101222146284601F019FABBE734
:10244000B3F1C06F05D0B3F1007F14BF01230223A5
:10245000C1E70323BFE70D4AD5E73146284601F01F
:1024600001FA094B9842DCD06FF00B00A5E76FF042
:102470008500A2E76FF015009FE751F82330FFDEDB
:10248000002884500400AD0B0000AD0B00258450E3
:1024900038B545682B69B3B11035284601F0D2F93B
:1024A000044680B90146284601F09AF9084B984243
:1024B0000BD122462846074901F072F92246052130
:1024C0000D20FEF7C7FF002038BD6FF00400FBE7CA
:1024D0000000AD0BD92400004209034670B502D0BC
:1024E000012A17D070BD0D4E326951680029F9D00C
:1024F000012503F01F030C689D400029F2D08A6873
:102500002A4002D030464B6898472CB123682146B8
:102510001C46F2E7024EE7E72346F8E7A48C0000EA
:10252000908C00002DE9F04340F206354668D00655
:1025300048BF0320337B02EA050558BFC2F34010B1
:1025400087B001F01F07B5F5837F144647EA4317AC
:102550008DF8030044D00FD8062D18D007D8B5B198
:10256000022D3FD06FF0150007B0BDE8F083B5F540
:10257000807FF7D101250AE040F20222954233D054
:10258000B5F5407F32D0B5F5007FEBD102250123B0
:10259000220303FA01F12BD573689960326972BB8B
:1025A00007F01F037F0928D0012F75D13C4A02EBA9
:1025B000830284F48033D2F80012C3F30043C4F3DF
:1025C000404444EA430421F4706144EA800421F069
:1025D0000F0144EA05230B43C2F800320020C3E791
:1025E0000725D4E70425D2E70525D0E70325CEE764
:1025F000630344BF7368D960D0E72A4AD7E710362F
:10260000394630460DF1020201F0D0F814F4403F93
:1026100080460CD13946304605F035F8224B9845B6
:10262000DCD130469DF8021001F016F9D6E74FF0E4
:10263000000901AB3946304603AACDE90439CDE99A
:102640000199CDF80C9000F06DFF174B984289D19D
:1026500014F4003315D09DF8033084F48034C4F3AF
:1026600000448DF80E3039464B46304603AA8DF8AB
:102670000C508DF80D4001F011F80B4B9842CDD065
:1026800070E7CDE9043339460DF10303304603AA60
:10269000039300F047FFF0E7803352F82330FFDE6A
:1026A00000288450002584500000AD0B10B504466E
:1026B0000269A2B0C2F880001649002001F00AFAAF
:1026C000002203212A20FEF7C5FE8422002101A852
:1026D000646806F074FA0023012001AA61680432DC
:1026E000D940C90744BF00FA03F142F8041C21682D
:1026F000D940C90748BF00FA03F103F1010348BFFD
:10270000D163102BEAD101A801F0FCF9002022B01E
:1027100010BD00BF47700000036803F01F025B0993
:10272000026004D0012B034818BF00207047024804
:10273000704700BF00288450002584502DE9F04FD9
:102740001546834640F2FF18DFF88891DFF888A12C
:1027500085B000EB8101594503D1002005B0BDE8EB
:10276000F08FDBF80030C3F3C322082AC3F3080458
:1027700000F2AA801B0E444508BF4FF0FF3419F841
:102780000270222B00F2A380DFE803F012191F224F
:10279000252B22A1A1A1A13A67A1A1A1A1A1A1A13B
:1027A000A1A16A7F8285A1A1A1888F9295989B00A3
:1027B000C5F80C45601C5DD10BF1040BCBE7C5F8E7
:1027C0001445621CF8D000265DE0C5F80845F1E725
:1027D000C5F81045F5E7631CC5F80845ECD00026A0
:1027E00004E0661CC5F80C45E6D0012603A8039456
:1027F000FFF792FF0122039B02FA03F3C36008E094
:10280000C5F80845002FDCD1631CD5D0002606276B
:102810003246DBF80030039403F40040002818BF70
:10282000002203A818BF012601930092FFF774FF4E
:10283000039C019B00EB8400D0F80042C3F3412CC1
:10284000009A3B0243EA8C03134304EA0A0423433D
:1028500043EA4603C0F80032AEE7C5F80C45D1E7BD
:10286000C5F86045601CDBF80030A5D0C3F3004319
:10287000002BBAD0012603A80394FFF74DFF039B5A
:1028800006FA03F383603246C3E7C5F86445E9E717
:10289000C5F86845E6E7C5F86C45E3E7C5F82445A3
:1028A000621C89D001260022B3E7C5F8284581E7DC
:1028B000C5F83045F4E7C5F83445F1E7C5F83845C3
:1028C000EEE7C5F83C4575E76FF0150046E76FF099
:1028D000850043E7A0930000F0F0FCFF2DE9F041F4
:1028E00004460D46476805F0DFFE4FF0200888B922
:1028F000264B1B7873B16426606804F0CEFCF0B9F7
:10290000012004F07CFD013EF6D10021212002F0DF
:102910004FFDF0E7EFF31186314688F31288BFF3DD
:102920006F8F606804F0B9FCA8B986F31188BFF313
:102930006F8FEFE786F31188BFF36F8FE5E7EFF353
:102940001186314688F31288BFF36F8F606804F0F8
:10295000A4FC0028EED0FB6900201D706368FA69B2
:102960001B68C3F844250122C3F84825C3F8200199
:10297000D3F82041C3F85801D3F858019A6081F385
:102980001188BFF36F8FBDE8F08100BF4B130020AB
:10299000F7B50546002203210820FEF75BFD08205D
:1029A000FEF728FD6B681A691868C0F82425997D20
:1029B0005A7D0A43198B1B7D0B431343C0F86C35BA
:1029C0006E68D6E9004313F0010348D02F6907F180
:1029D0000C0004F027FD304B98425AD1387B04F1AB
:1029E0000C0204F5907104F016FD387B012707FAFC
:1029F00000F000F089FB0823C4F80035F369C4F83F
:102A000044350023C4F84835A760D4F85831002B6A
:102A1000FBD00021C4F800156B6801AADC682046D1
:102A200004F084FB002805DB019B226819791868F3
:102A3000FFF784FE08216A681368C3F80015117A4D
:102A400051B9126AC3F834250122C3F83825C3F8F6
:102A50001011D3F810111A60002003B0F0BD082245
:102A6000C4F80025F269C4F84425C4F848350123A8
:102A7000A360D4F82031002BFBD00023C4F8203110
:102A8000D4F820310123E3604FF48073C4F8043399
:102A9000BBE76FF00400E0E70000AD0B01238340CB
:102AA00070B5DC430B4AD2E8EF1F01EA0405C2E827
:102AB000E65F002EF7D14FF4803282400648C0F81E
:102AC0000823BFF35F8FBFF36F8F0B4214BF01204A
:102AD000002070BDD01000200050015070B40E498D
:102AE00022F07F46D1E90034D01AC31844F1000423
:102AF000C1E90034A6F50013B3F5400F09D2074B26
:102B00001B681A0A1B069C19054B42F10005C3E914
:102B1000004570BC02F0E2BD78070020D410002010
:102B200080070020D9B101230D4A8340D2E8EFCFBE
:102B30004CEA030CC2E8E1CF0029F7D14FF480330F
:102B4000084A8340C2F80433074BD3E8AF3FC34081
:102B5000DB0742BF4FF40012044BC3F8002170475B
:102B6000D010002000500150CC10002000E100E007
:102B70000D4B1868010A0006BFF35F8F0B4BD3F8AB
:102B80000435181841F10001B3F5801F0AD2084B33
:102B9000D3E90023904271EB030303D210F180705C
:102BA00041F10001704700BFD410002000500150D7
:102BB000800700202DE9F04F85B016461F460446D9
:102BC0009DF840A0FFF76AFF0190FFF7D1FFB042E8
:102BD00071EB070352D23B4B301A67EB010198426D
:102BE00071F100014DD2384B03EB0413D3E90223FA
:102BF0009F4208BF964258D04FF48038334908FAB4
:102C000004F8204626F07F4BC1F8488304F0DBFB34
:102C10004FF00309584604F15005AD00ADB205F17F
:102C2000502504F5A87305F580350293029A20F02B
:102C30007F4341F82230C1F84483D1F80435244A57
:102C4000C01A033820F07F4090422ED9286868B11E
:102C5000D1F80435A3EB0B0020F07F40B0F5000F56
:102C6000039322D9204604F0AEFB039BBAF1000F78
:102C700007D109EB030009F10109D7E7BAF1000F09
:102C800009D06FF0150520460199FFF74BFF284644
:102C900005B0BDE8F08F01230E4AA340D2E8EF0F44
:102CA0001843C2E8E10F0029F8D107490E98230123
:102CB000C8500F9B01EB04120025C2E90267536064
:102CC000E1E700BF010080006807002000500150CC
:102CD000FDFF7F00CC1000207FB500254FF0FF30B6
:102CE0004FF0FF31194C1A4B0226C4F80833C4F8D0
:102CF0004833184BC4F80855C3E902014FF4803338
:102D00004FF40012C4F80433134B0321C4F80463D6
:102D10001520C3F880212A46FEF79CFB1520FEF7FC
:102D200069FB01230D4AA360236013600C4B0D4A1D
:102D3000009328460023CDE90155FFF73BFF3046BD
:102D4000FFF7AAFA284604B070BD00BF005001503A
:102D500003000F006807002000E100E0D010002011
:102D6000DD2A0000FFFF7F002DE9F7432E4BD3F84B
:102D7000042390070BD5D3F8042142B10022C3F8F5
:102D800004212A4AD3F80431136801331360264A18
:102D9000D2F80433D90326D5254BD3E8EF1F21F011
:102DA0000100C3E8E40F002CF7D1CB0702D4D2F81E
:102DB0004031C3B100251C4CC4F84051D4F8403117
:102DC000FFF7D6FEEFF31182202383F31288BFF3BF
:102DD0006F8F184BD3E90267B042B94106D282F334
:102DE0001188BFF36F8F03B0BDE8F0834FF0FF3859
:102DF000D3E900104FF0FF391D60C3E902894FF499
:102E00008033C4F84833C4F84051D4F8403182F3D9
:102E10001188BFF36F8F0029E5D0009032463B4602
:102E200028468847DFE700BF00500150D41000203B
:102E3000CC1000206807002030B5431C124C85B030
:102E400005D08442A8BF0446012CB8BF0124FFF777
:102E50008FFE0E4B0C4DD3E90013401AB0F5000F56
:102E60000FD22218AA4228BF2A4600205218084929
:102E7000CDE90100009143F10003FFF79BFE05B08F
:102E800030BD2A46F1E700BFFFFF7F007807002032
:102E9000DD2A000008B5FFF76BFE024B1B68C01A65
:102EA00008BD00BF780700204FF47F03D3F830211E
:102EB000D3F83431072A05D1023B032B02D8024A4A
:102EC000D05C704700207047BB93000008B5FFF747
:102ED000EBFF58B1644BD3F8202A3AB90D21C3F85F
:102EE000201A0121C3F81C19C3F81C290022D300A1
:102EF00003F57F03D3F80013013107D0D3F8001393
:102F00000132D3F80433202A0B60F0D1FFF7CCFF55
:102F1000002840F0A080FFF7C7FF40B1534B544A50
:102F2000C3F830254FF050230122C3F858254FF441
:102F30007F03D3F83021D3F83431072A09D1023B7B
:102F4000032B06D84B4AD35C1BB100224A4BC3F873
:102F50004C25FFF7A9FF50B14FF05023D3F80024C0
:102F6000D10742BF0022C3F81421C3F818214FF43F
:102F70007F03D3F83021D3F83431072A09D14FF039
:102F80005023D3F80024D20744BF6FF00102C3F8E6
:102F90000024FFF789FF18B16522334BC3F80C27D3
:102FA0004FF47F03D3F83021D3F83431072A16D1F8
:102FB000314BD3F82034002B11DA4FF05023032289
:102FC000C3F8182501229A60D3F80421002AFBD007
:102FD0000022C3F804210122DA60C3F818254FF457
:102FE0007F03D3F83021D3F83431072A23D1023BB1
:102FF000032B02D8214AD35CEBB17E221A4B1B492A
:10300000C3F80C27C3F83C297F231D4AC2F81831A6
:103010000023C1F8043EC1F8083E01F54821C1F87B
:103020001031C2F82431C2F82C3102F5FF1202F53A
:103030008052C2F8A032134AD2F88C3043F4406375
:10304000C2F88C30104A114B1168C3F84415D2698C
:10305000C3F84C2508BD2922034BC3F80C270322D3
:10306000C3F83C2757E700BF0040005000900350D2
:103070004400EFBEB793000000200350B39300005C
:103080000020005000ED00E00080FF0000600050D4
:1030900030B50468ACB1B4FA84F30122C3F11F0364
:1030A000DBB29A4024EA0202D0E8EF5FA54204D1E5
:1030B000C0E8EC2FBCF1000FF6D1EAD102480B704A
:1030C00030BD0248FCE700BF0000AD0B0200AD0BB5
:1030D00010B50368CB40DB0710D401238B40026896
:1030E00043EA0201D0E8EF4F944204D1C0E8EC1F5C
:1030F000BCF1000FF6D1F2D1014810BD0148FCE748
:103100000000AD0B0400AD0B014BC3F80405704784
:1031100000700150044B1A7922B9012218601A710B
:103120000248704702487047D81000200000AD0BDD
:103130000C00AD0B08B50A4B1B6833B10520FEF738
:103140007BF910B90520FEF755F94FF05023012205
:10315000C3F81825C3F81425C3F8802508BD00BF9F
:10316000D810002010B5032845D8DFE800F0180279
:10317000554F00224FF480730121002003F15023AA
:1031800018601C68012402F150221460284A126859
:10319000002A47D04FF05023C3F804132BE04FF020
:1031A0005023D3F81814D3F81824C90312D502F009
:1031B0000303022B05D0012B02D0002004F034F9C8
:1031C00001234FF050220221C2F8183508224FF493
:1031D0008273D2E7D3F81424D207F1D5D3F81C2494
:1031E00002F00302013A012AE7D8114A12681AB123
:1031F0000222C3F8042310BDD3F80421002AFBD017
:103200000022C3F80421D3F80431F4E718224FF464
:1032100090734FF48071B0E720224FF492734FF413
:103220000071AAE71A68002AFCD018601B68E2E760
:10323000D81000204FF0502310B5D3F8002152B120
:103240000020C3F80001D3F800210122C3F80823AD
:10325000234B1B6898474FF05023D3F8042182B1C9
:103260000022C3F80421D3F80421D3F81824D3F89A
:103270001824022102F00302012A28D1C3F81815EC
:103280009A604FF05023D3F8202162B10022C3F896
:103290002021D3F820214FF48072C3F80823104B6B
:1032A00005201B6898474FF05023D3F82421AAB17A
:1032B0000022C3F82421D3F824214FF40072C3F86C
:1032C0000823074B0620BDE810401B681847C3F8C9
:1032D0000813034B01201B689847D2E710BD00BFBD
:1032E000D810002001460148FFF7D2BEC4000020DC
:1032F000036803F01F025B09026004D0012B03483E
:1033000018BF002070470248704700BF0028845053
:1033100000258450034A4309D35C00F01F00184481
:10332000C0B27047BF93000070B50546FFF7F2FFCB
:103330000C4C083034F810300E46DA0508D5C3F3CB
:10334000432304EBC302284654F8333052689847AD
:10335000A3682BB131462846E268BDE870401847A3
:1033600070BD00BFC800002008B5FFF7D3FF034BB6
:10337000083033F81000400B08BD00BFC800002023
:1033800008B5FFF7C7FF034B083033F81000C0F350
:10339000400008BDC800002008B5FFF7BBFF034B85
:1033A000083033F81000C0F3401008BDC8000020FA
:1033B000034611F0010010B5CCB20BD1A207C4F343
:1033C00040000DD5074A106A58601062003818BFD7
:1033D000012005E004490A6A1A600A62002AEDD059
:1033E00010BD00BF002884500025845010B5FFF7A1
:1033F00091FF124A083032F81030D9051CD5C3F3BA
:10340000432123F4F85322F81030002002F10E0477
:1034100034F8023F13F4807F03D0C3F3432399426F
:103420000AD001303028F3D1002342F8313004486B
:10343000BDE81040FFF74CBE10BD00BFC800002023
:1034400040010020F0B5054600200126044607464D
:103450008C420BD1114BD3F87C2132B10022C3F83E
:103460007C21D3F87C3140F00040F0BDE3B29B00FA
:1034700003F580729B0806FA03F31D420BD002F19C
:10348000A04202F55042D2F800C0BCF1000F02D0B9
:103490001760126818430134DAE700BF00D000500B
:1034A000F7B506460846FFF735FF1A4F00F1080545
:1034B00037F815300C46DB072AD5304604F0BFF844
:1034C0002046FFF769FF58B12046FFF74DFF002265
:1034D000316800B201EB8003C3F81025C3F8102552
:1034E0002046FFF783FF002301A827F81530019439
:1034F000FFF7FEFE019B00EB8300D0F80022064B95
:10350000134043F00203C0F80032044803B0F0BD9A
:103510000348FBE7C8000020F0F0FCFF0000AD0B03
:103520000400AD0B2DE9F0431646804685B00846F1
:10353000FFF7F0FE0D463168044609B32846FFF751
:103540001FFF18B12846FFF727FF10BB00230DF11E
:103550000F02CDE900338DF80E308DF80F3028467C
:103560000B460DF10E0104F012F8484A04F108016F
:1035700032F8113023F0020343F0010322F8113036
:1035800073687BB328461F785968FFF7F9FE10B1BE
:10359000E9B13F4829E03D4A04F1080032F8103013
:1035A00023F02003DB04DB0C22F8103079B1032F69
:1035B000EFD87168D1F804E0D8F800109EF800C088
:1035C00001EB8C01A7B9C1F81075C1F810752F4A2D
:1035D00004F1080132F8113023F01C0343EA870399
:1035E00022F81130B3683BBB2A4805B0BDE8F08330
:1035F000D1F810E543EA4C332EF0030EC1F810E584
:10360000D8F8001043F0200301EB8C0EDEF8101503
:1036100022F8103021F44F3121F44071CEF810150A
:103620002902DEF8108501F47C5141EA074141EAA4
:103630000801CEF81015CAE72846D3E90067FFF75E
:10364000D5FE002ED0D0114DD5E90023964203D1EE
:103650009F4201D1002209E00F480DF10F01FFF751
:1036600017FD0C4B9842C0D19DF80F2005EBC2030B
:1036700008345F6035F8143045F8326043EA42237D
:1036800043F4807325F81430AEE700BFC800002073
:103690000400AD0B0000AD0B400100202DE9F0430C
:1036A0000C46804685B0204611461D46FFF732FE87
:1036B000064629B32046FFF763FE18B92046FFF7F8
:1036C0006BFE18BB334F06F1080937F8193013F0B9
:1036D0001C0F02D04B78012B18D001238DF80F302E
:1036E00000234A1CCDE9001320468B1C0DF10F016D
:1036F00003F04DFF37F8193043F0030327F8193072
:10370000002D44D02046FFF73BFE18B9224805B0F3
:10371000BDE8F083002295F800C0D8F800301D4FB6
:1037200003EB8C03C3F81025C3F8102506F108023B
:1037300037F812104FEA8C0E21F02001C904C90C91
:1037400027F812106E7816B3D8F80000AD787044E0
:10375000D0F81035360423F4991323F4F853C0F845
:103760001035230203F47C5306F440362D05D0F8BF
:1037700010E5334305F480152B4341EA4C3143EA0D
:103780000E0341F02001C0F8103527F8121003484D
:10379000BDE700BFC80000200400AD0B0000AD0B6A
:1037A000014BC3E902127047C800002010B508465B
:1037B0001446FFF7F1FD50B10846FFF7ABFD054B8E
:1037C000083033F8103004485B0B237010BD0348F9
:1037D000FCE700BFC80000200000AD0B0400AD0BEB
:1037E00070B5154D064695F880401CBB21466022F9
:1037F00005F1100005F0E3F9214630682E6F8E4286
:103800000ED10023C0F87C31D0F87C3140F3073072
:10381000FDF7F0FD0123094885F88030AB6770BDE6
:10382000CBB29B0003F580727C2B04BF845083587D
:103830000131E4E70248F2E7C80000200000AD0BC8
:103840000C00AD0B034B93F88000003818BF01202B
:10385000704700BFC80000200148FFF739BC00BF17
:103860003C0100200148FFF713BC00BF3C010020D1
:1038700073B503681646D3F804230546002AA8BF8B
:103880004FF000420846A8BFC3F804230C46FFF7D8
:1038900083FD00B30846FFF773FD0146D8B9204603
:1038A000FFF762FD04B2A4000346286804F58072A5
:1038B0008150296882582144D1F8102542F0010234
:1038C000C1F810252EB10122296802FA03F3C1F8CC
:1038D000043302B070BD2046FFF71CFD0E4B0830CC
:1038E00033F81030C3F38203042B11D0052B11D011
:1038F00001A80194FFF7FCFC019A0369D34003F08F
:103900000103991C204602B0BDE8704003F088BE58
:103910000321F7E70221F5E7C80000202DE9F04F69
:10392000684BDFF8A481D3F80403D8F87010C0B254
:1039300089B040F00040FFF785FD051E2FDAC24632
:1039400000235AF87C1F06A8CDE90633FFF730FDA7
:103950004FF0000B5D4B0DF118090193019A12F81D
:10396000013B0192DA081AF8022003F0070322FA59
:1039700003F3DA071CD409F10409BBF1000F14D0DA
:10398000D8F870104FF00040FFF75CFDD8F87C10BD
:1039900006A8FFF70DFD0028DAD125F00045012427
:1039A000002D76D109B0BDE8F08F4FF0010BD5E7BF
:1039B000474B5B440293D9F800100029DBD091FA01
:1039C000A1F1B1FA81F1029B1C7841EA441420462E
:1039D000FFF7A0FC083038F81070C808BB08039344
:1039E000012319F8002001F0070103FA01F122EA8E
:1039F000010209F8002005A80594FFF779FC059A53
:103A0000039B803250F82220C7F382065B073746BB
:103A1000C2F3014222D520463946D6B2FFF784FCD4
:103A200005A80594FFF764FC059B803350F823300C
:103A3000C3F301439E4207D10021204603F0F0FD6D
:103A40003146204603F0ECFD05A80594FFF750FC35
:103A50000122059B02FA03F30362ACE7022A0CD1B0
:103A60000321204603F0DCFD06F00503012BEBD11A
:103A700039462046FFF758FCE6E70221204603922C
:103A800003F0CEFD032EF3D0039A032ADCD1022EDD
:103A9000EDE795FAA5F3B3FA83F304FA03F29B007A
:103AA00003F1A04303F55043D3F81005D3F81015E4
:103AB000C0F30520C1F3014125EA0205FFF734FCFC
:103AC0006EE700BF00D00050C8000020CF93000078
:103AD000CF93000070B5084C0E462379154643B9C4
:103AE0002A20FDF787FC0123044823712660A56086
:103AF00070BD0348FCE700BFE01000200000AD0BE4
:103B00000C00AD0B002330B50D4A50F8234003F5EF
:103B1000A2710133102B42F82140F6D10023084A4C
:103B200000F13C0103F5B27451F8045F0133102B2E
:103B300042F82450F6D1D0F88030C2F8043330BDBA
:103B400000A002500123024A8340C2F804337047A8
:103B500000A002500123024A8340C2F80833704794
:103B600000A00250F8B5012600270B4B0B4DD3F8EF
:103B70000C4304B9F8BD94FAA4F0B0FA80F006FA48
:103B800000F324EA0304064B82009F502B68002BAD
:103B9000EFD0A9689847ECE700A00250E0100020A1
:103BA00000A102502DE9F0410E4617460C4D55F884
:103BB0001C4FAC4203D16FF01200BDE8F0813146DA
:103BC00054F8440CA4F14408FCF7C4FA30B9C7F81F
:103BD00000804046BDE8F04103F04DBE2468E8E7B0
:103BE000EC10002010B5D0E909124A60416A00F1DA
:103BF00024031160C0E909334368044603B19847C0
:103C0000054A936833B11279062A03D9072022683E
:103C100002499847002010BDEC100020D19300000D
:103C20002DE9F04107460D460B4E56F80C4FB442B5
:103C300002D16FF001000AE0394654F8240CA4F1D7
:103C40002408FCF787FA20B91DB1C5F80080BDE84B
:103C5000F0812468EBE700BFEC10002038B5044683
:103C600000B30068F0B10378E3B10021FFF7D8FF9B
:103C7000D8B104F11C03C4E907330D4B04F124024D
:103C8000196903F10C00A16260621A610A609D6803
:103C900035B11B79062B03D9072022680549A847AF
:103CA000002038BD6FF01500FBE76FF01000F8E75B
:103CB000EC100020D393000010B5036893B11B787B
:103CC00083B18368012B0DD8084B00F14401436098
:103CD000074B1A6A03F11C048264446400201962D1
:103CE000116010BD6FF01500FBE700BF4C01002014
:103CF000EC10002038B5114C0546216819B10020A0
:103D00000131216038BD2422204604F058FF2B6881
:103D10002846A3602B79237104F10C03C4E9033313
:103D200004F11403C4E9053304F11C03C4E90733A7
:103D300000F018F80028E5D12168E0E7EC10002039
:103D400038B5074D2C68013C2C6044B900F012F8DE
:103D500021462846BDE83840242204F030BF38BD53
:103D6000EC10002008B50248FFF778FF002008BDDE
:103D70004C0100200148FFF735BF00BF4C01002077
:103D80000EB4431E062B33B588BF0020094B05AC8B
:103D900054F8045B53F82010074802F014FC214645
:103DA00028460194FCF76EFB02B0BDE8304003B03A
:103DB000704700BFB0910000E69300002DE9F04F7E
:103DC00087B017469B460446DDF840A000284BD03C
:103DD000056A35B12D6825B1AC4607B0BDE8F04F96
:103DE0006047A36A9F4242D80026BE4203D100200A
:103DF00007B0BDE8F08F182303FB06F8D4F82C9029
:103E0000A26909EB08052B1D0593CAB968696968A1
:103E10000368B5F80CC0C91AAB680CF1030E5D1E3F
:103E200005EB0C155B4205EB4E051D4005EBCC0385
:103E300085680633A94228BF4FF0FF3103F0E8FC44
:103E400059F8083020460293236AB1B29B6A019365
:103E50005AF8263000935BF82620059B03F029FDD5
:103E60000028C5D10136C0E76FF01500C0E7014852
:103E7000BEE700BF40F4FFFF10B5044690B1028DCD
:103E800043899A4209D0084A936833B11279032AC8
:103E900003D942680549042098472046BDE81040F0
:103EA00004F0F1BD10BD00BFEC10002081940000B3
:103EB00030B544898C4212D9436A013C5D882C405C
:103EC00003EBC40359609A60BFF35B8F426A538867
:103ED00001335380438D01334385002030BD0148B9
:103EE000FCE700BF41F4FFFF70B4039E144660B1CD
:103EF000006A50B14BB1013407D0002E05DBD0F879
:103F0000844014B1A44670BC6047014870BC70473F
:103F10002DF8FFFF70B4039E144660B1006A50B1E3
:103F20004BB1013407D0002E05DBD0F8944014B11A
:103F3000A44670BC6047014870BC70472DF8FFFF75
:103F400070B50C4611461E460E4B05462022002930
:103F500008BF1946204604F09EF90123E362049B42
:103F60006662A362059B25626363069BA363079B4E
:103F700063646A6804F13C03C4E90F526B60226C0D
:103F8000136070BDA29400002DE9FF47DDF8348076
:103F90000E4691469A460546002876D0002974D0F0
:103FA000B8F1000F71D001F16407384603F011FE3B
:103FB000BAF1FF3F49D1346E06F1500204F180009E
:103FC000844204F01F0C07D2C4F3411152F82110AF
:103FD00021FA0CF1C90736D4012104F07F046009ED
:103FE00052F8203004F5806A01FA0CF104F2014421
:103FF0000B4304F07F0442F8203034666B6C4A4671
:1040000003930E9B2946CDE901830C9B3046009318
:104010005346FFF795FF384600F0BAFC2C7874B190
:1040200096F8A4405CB1AB6A013330D10021284638
:1040300003F00EFE044610B1284603F0DFFD2046D3
:1040400004B0BDE8F0870134BAE7BAF5806FD5D384
:10405000AAF580637F2B06F150010FD8580951F85B
:10406000204003F01F0324FA03F2D2070BD40122ED
:1040700002FA03F3234341F82030BFE7054C3846EA
:1040800000F086FCDBE7044CF9E7024CD7E700249C
:10409000D5E700BF2DF8FFFF29F8FFFF08B58368BB
:1040A0001A0C0AD1094A93682BB11279022A02D953
:1040B000032007499847002008BDA3F5803383609B
:1040C0001B0C0CBF01200020F6E700BFEC10002005
:1040D000A394000038B50446E0B100F16405284619
:1040E00003F055FED4F8B4309B6953B9D4F8A84016
:1040F000103C002C00DC084C284603F046FE20460D
:1041000038BD012BF7D1D4F8BC0003F04AFDA0F173
:104110001004EEE7014CF2E72EF8FFFF2DF8FFFF49
:1041200038B50446E0B100F16405284603F02FFEDF
:10413000D4F8B4309B6953B9D4F8AC40103C002C8F
:1041400000DC084C284603F020FE204638BD012B39
:10415000F7D1D4F8B80003F024FDA0F11004EEE785
:10416000014CF2E72EF8FFFF2DF8FFFF2DE9F04399
:1041700085B00F46904603A90D9A0546994603F06F
:10418000C9FF0446E0B10C9E039BD5F8C0009E42D7
:10419000A8BF1E460168D0F808C0611A33464A46D7
:1041A000614528BF4FF0FF3103F0F8FA234642463D
:1041B00039462846009603F04DFF05B0BDE8F08370
:1041C0000048FAE72EF8FFFF2DE9F0438BB00E46CA
:1041D000DDE9128915461F46044620B9954D28464B
:1041E0000BB0BDE8F0830029F8D0002BF6D00021F9
:1041F000A822C0F8D01004F0E2FC012204F164000F
:10420000114604F0E1F98C4BC4F8B460E5677462C0
:10421000C4F88430894BD4F8B450C4F88830884B43
:10422000C4F88C30874BC4F89030874BC4F8943076
:10423000864BC4F89830864BC4F89C30854BC4F844
:10424000A030AB6943B9B9F1000FC7D099E80700B6
:1042500004F1A80383E80700AB69012B07D0D4F869
:10426000B400E0B96FF01505B9E74307F7D4D4F807
:10427000B4000028F6D0036A002B00F0D8809B68B9
:10428000002B00F0D48098474206EED50021D4F8E8
:10429000B40003F06AFD05460028E8D09FE7036AF2
:1042A000002B00F0C4801B69002B00F0C0809847F1
:1042B00000F0010084F8A400D4F8B4008369E3B9E5
:1042C00099F80830002B00F0858008F10C03C4F841
:1042D000C430B8F1000F81D0D8F80820002A00F0CF
:1042E000A4809B68002B00F0A0805B4B04935B4B89
:1042F00005935B4B06935B4B07938369012B07D1B7
:10430000564B0493544B0593564B0693544B0793CB
:10431000002104F1C803C4E9323306ABC4F8C0700D
:1043200002220093019104ABFFF748FD05460028E7
:104330007FF455AFD4F8B4309A693AB9F26A12688A
:10434000C4F8B820F26A9269C4F8BC209B69012BBA
:1043500007D1F36A9B69C4F8B830F36A1B68C4F8E4
:10436000BC30D4F8BC0003F0B7FBF36A1B68DF6213
:10437000F36A9B69DF62D4F8B430D3F81890B9F1CE
:10438000000F07D1D4F8AC300993D4F8B8305B896A
:104390004B4521D894F8A430C4E9004463B100230C
:1043A0000293314B204601933523304A0394009306
:1043B00004F10801FFF7C4FDD4F8B4008369002BB1
:1043C0007FF40DAF042103F0D0FC064600283FF433
:1043D00006AF24E043467AE74046D4F8AC1003F039
:1043E0008AFE0646D0B139680890411AB8680022A2
:1043F000814228BF4FF0FF31D4F8AC30384603F08B
:1044000007FA009601230022D4F8B80008A903F0A7
:104410007DFA064618B909F10109B6E7144ED4F839
:10442000B40003F09BFC3546D9E6114DD7E66FF09A
:104430000505D4E62DF8FFFF6D410000E37D000087
:10444000557F000015810000558000009B7D000015
:1044500021410000D5400000C4940000CA9400002F
:10446000817F0000897D0000077E0000D09400005D
:104470002EF8FFFFF0B505460E46174687B0074AEF
:1044800003AC07CA84E807000C9A3146009228461C
:104490003A460194FFF798FE07B0F0BD388F000050
:1044A00038B5EFF31185202383F31288BFF36F8FA4
:1044B000064B9C6803F016FF85F31188BFF36F8FDE
:1044C0002046BDE83840FCF717BF00BF10110020A0
:1044D00038B5094B53F82040013053F82050A5421D
:1044E00000D838BD636823B1204603F0FEFE0834CF
:1044F000F5E723689847FAE7D0910000012270B5EC
:104500002A4B032086B01A70FFF7E2FFFCF7FCFB92
:1045100003F007FF0420FFF7DBFF254C254D26465F
:10452000AE4204F1300410D300F084FE204C224E41
:10453000AC4226D300F092FEFBF75EFF1F4A137BCE
:1045400023F00103137306B070BD54F80C3C0593BF
:1045500054F8103C049354F8143C039354F8183C5A
:10456000029354F81C3C019354F8203C009354E906
:104570000A2354E90C0100F02BFC54F8303C5E6532
:10458000CDE7D4E90A23B3F1FF3F08BFB2F1FF3F03
:1045900005D052EA0301206803D104F08EF83034CC
:1045A000C6E73146183001F01FF8F8E74B1300203A
:1045B000308F0000308F0000E987000008080020DD
:1045C00008B50348034A0021121A03F0A6FE08BDED
:1045D00050030020501300200023012270B586B044
:1045E000CDE904230F220193CDE9023214234FF4C5
:1045F000A0720E4D0E4E03FB00550E4906EBC01681
:10460000044602FB00110C4B3046009500F0E0FB25
:10461000737B2C7423F004037373084B013403EB96
:10462000C423EE606B6006B070BD00BF10110020A7
:10463000880700205023002089840000501B0020A0
:10464000BFB50020FFF744FF2D4B03F5006282F356
:10465000088883F30A880024E0232A4D2A4E85F82F
:104660002230EC772C766C76AC7685F820406B6A3D
:10467000264F43F4E0236B6285F82340FCF7BAFD34
:10468000FCF75AFF4FF0FF33AB62EB62FDF7E0F847
:10469000FCF776FF40F201131D4D2846AB81C5E9BA
:1046A000194401F0CBF8B56003F008FE0120FFF7D4
:1046B0000FFF0220174DFFF70BFF00F0EFFD164B29
:1046C00075610593012315494FF48062CDE90343D9
:1046D00028463B46CDE90144009400F079FB0646AC
:1046E0006A7B284622F004026A7304F022F820460E
:1046F000FFF772FF3A4631462846FCF7F9FE00BF45
:10470000501B002000ED00E010110020FD440000CF
:104710002809002008080020D394000090240020DD
:1047200038B5064C064DAC4201D3002038BD2046BA
:10473000D4E9011203F0F6FD1434F4E7F00100208F
:1047400004020020002038B5054C064DAC4200D3D1
:1047500038BD204603F04BFE0028F9DB1C34F5E79A
:10476000EF010020EF01002073B50C46EFF311813B
:10477000202585F31288BFF36F8FC5685DB1256072
:104780002B68C360836901338361002081F3118842
:10479000BFF36F8F11E052EA030603D16FF00B00F5
:1047A0002560F3E7CDE900230246083000F08EFCD7
:1047B00018B9034B9B685B69236002B070BD00BFF2
:1047C000101100202DE9F341044617461E46EFF371
:1047D0001188202383F31288BFF36F8FC368334A95
:1047E0007BB180689168884219D057EA060318D1D6
:1047F00088F31188BFF36F8F6FF00F0002B0BDE830
:10480000F081916891F90E100133E36093682161A2
:10481000A36088F31188BFF36F8F0020EEE7216952
:10482000F2E791F90E1090F90E306FF07E02994286
:10483000A8BF19469142B8BF11468B422DDD03F047
:104840002EFE054622464146CDE90076184800F086
:104850003DFC0028E1D0EFF31186202383F312887A
:10486000BFF36F8FA068D0B1236821699C420AD042
:104870004BB193F90E309942A8BF19466FF07E03F1
:104880009942B8BF194603F00AFE40B131460848C4
:1048900000F08CFC6FF00A00B0E70025D2E7002D95
:1048A000F4D186F31188BFF36F8FF3E71011002066
:1048B0004C13002038B58368044663B3194A9268E4
:1048C00093422BD1C368012B03D9013BC360002065
:1048D00038BDEFF31185202383F31288BFF36F8F68
:1048E0000169806803F0DBFD204603F081FFA060D2
:1048F00058B190F90E2022610022C26703F019FF1F
:104900002946094800F052FCE1E7E06085F3118890
:10491000BFF36F8FDBE76FF01500D9E74FF0FF3083
:10492000D6E700BF101100204C13002037B5114608
:10493000EFF31185202282F31288BFF36F8F046892
:104940009CB12368426823F003039442036008BFCC
:1049500043600121204603F016FE044685F31188CA
:10496000BFF36F8F204603B030BD51EA0302F5D08C
:1049700000F10802CDE900131046294600F0A6FB1D
:104980000028EFD1014B9B685C69EBE71011002018
:1049900038B50446EFF31185202383F31288BFF363
:1049A0006F8F03F025FF48B10022C26703F0C1FEFC
:1049B0002946BDE83840074800F0F8BBD4E9023288
:1049C0009A4218BF01330221A36004F1100004F0E1
:1049D0002DF8EDE74C13002013B5EFF311812024DF
:1049E00084F31288BFF36F8F846844B1013C846004
:1049F00081F31188BFF36F8F002002B010BD52EA1F
:104A0000030406D181F31188BFF36F8F6FF00F009D
:104A1000F3E7CDE900230246014800F057FBECE73D
:104A20004C1300201FB5094A02AB92E803004FF473
:104A3000007283E80300009305494FF0FF330548F7
:104A400000F04CF9002005B05DF804FB448F000035
:104A500090280020880800202DE9F04305464FF0FB
:104A6000FF364FF0FF37DFF82C8185B0EFF3118967
:104A7000202383F31288BFF36F8FD5F880408CB961
:104A8000022105F1980003F0AFFD002860D100235A
:104A90004946CDE90067029305F188023E4800F0DF
:104AA000ABFCE3E7D5F8842023689442C5F8803056
:104AB00008BFC5F88430D5F8983043F00203C5F834
:104AC0009830E36823F0040343F00103E360636874
:104AD00089F31188BFF36F8F20469847EFF3118950
:104AE000202383F31288BFF36F8FE368D90623F086
:104AF000010237D4E260E3689A071AD5D8F80000BB
:104B000023F00203E360A0B10021026888B143688A
:104B10009C4237D1036869BBD8F80420C8F800303C
:104B2000824201D1C8F80430002340F8083BFFF767
:104B30002FFFD5F8983023F00203C5F8983089F399
:104B40001188BFF36F8FDB0590D400F0AFFB8DE7CA
:104B500005F1900400220121204603F0A1FE002867
:104B6000F8D194E723F01103E36004F11000FFF79C
:104B70000FFFC0E70B60D8F80430834208BFC8F8C5
:104B80000410D1E722B11368014610461A46BDE76A
:104B90001346F9E7301100204C130020F8B5C36824
:104BA00004469A070F46C3F340062CD45B071AD479
:104BB0000B680BB983680B60E368DD0742BFA3682D
:104BC00002263B603D6858BF0126002D3AD01F4B9E
:104BD0009B68AB420AD0D5F89830D807C3F380025F
:104BE00014D46FF0120600233B6025E003F05CFD57
:104BF000D5F898300028F0D1D907C3F3C002F0D51A
:104C000052B15B0708D46FF00F06ECE7002AFAD127
:104C1000C3F3C003002BF6D100232360D5F8843002
:104C200063B9C5E92044284603F0EAFCE36843F091
:104C30000403E3603B68A3603046F8BD1C60C5F820
:104C40008440F0E76FF01506CDE700BF101100209B
:104C50002DE9F041C368074603F00503002B0C461D
:104C600014BF4FF001084FF0000822D08668D6F834
:104C7000805025B1AF4201D02D68FAE7012501220D
:104C8000002104F1100003F09FFC2046124903F0BC
:104C9000BEFCE36843F01003E3609DB13B68236012
:104CA00073B9D6F884303BB9C6E92044304603F0E6
:104CB000A7FC4046BDE8F0811C60C6F88440F5E7DB
:104CC0003C60F3E7D6F880302360D6F88430C6F82D
:104CD0008040002BEAD1F0E7FF850000F0B50446E4
:104CE000002089B0C4E920000E9D04F18800C4E9C9
:104CF000220004F19000C4E924004DB32879002873
:104D000040F2011008BF0120C4F8980000204FF0C5
:104D1000FF364FF0FF37CDE90330CDE90100CDE993
:104D2000066720460B4B009400F090F855B12968B7
:104D300011B1204603F0BEFC6B791BB1237B43F01D
:104D400001032373204609B0BDE8F04003F0B5BC71
:104D50000120D9E7594A000030B50A46044685B01B
:104D6000EFF31185202383F31288BFF36F8FD0F800
:104D7000983013F0060F1DD1B1B143F00C03C4F805
:104D80009830204603F03CFC00234FF0FF320293A2
:104D90004FF0FF332946CDE900230C4804F190027F
:104DA00000F02AFB05B030BDD0F8800048B143F0D8
:104DB0000403E4E743F00401C0F89810002AE0D0AF
:104DC000DBE785F31188BFF36F8FEBE74C1300200F
:104DD0002DE9F043984685B000F15803C0E9163339
:104DE000109B002603730423073222F00705437348
:104DF0000F9B01EB05090F4683734946C0E9066620
:104E00008660C6730446FCF78FF80E9B073020F0CF
:104E10000700E066C4E9197502930D9BA9EB000930
:104E200001930C9B4A460093394643462046FCF7C3
:104E300043FB054B66659B6803B11B6F48462367C0
:104E400005B0BDE8F08300BF10110020F0B50025CB
:104E500087B00595109DDDE9127604950F9D0446F7
:104E600003950E9D02950D9D01950C9D0095FFF7F4
:104E7000AFFFB6F1FF3F08BFB7F1FF3F05D056EADD
:104E8000070305D1204600F0A3F9204607B0F0BD86
:104E90003A463346024904F1180000F0A5FBF4E756
:104EA000E987000038B50D4D2B4653F8184F9C424A
:104EB00000D004B9EC68AB6838B95A7BD20604D18B
:104EC000A26912B9DA897F2A05D89C4202D020460D
:104ED00000F0D2FA23466B6138BD00BF10110020EC
:104EE00008B590F90D200146002A437B04DA03F04F
:104EF0007F03437303F0E3FB044B9868431A584263
:104F00005841BDE80840FFF7CDBF00BF1011002099
:104F100070B490F90D30427B002B29DBD30627D1EA
:104F200083692BBB134962F07F0242730A4652F831
:104F3000184F944218BF2346CC6923B9C0E9002416
:104F40002060C8610CE090F90E5093F90E60B542F4
:104F50000AD0AE4208DD5A68C0E9003210605860DD
:104F6000002070BCFFF79EBF9C42E7D01B68E4E7BF
:104F700070BC704710110020002A2DE9F0410E4648
:104F80000CBF10210821427B044611420FD141EA97
:104F90000203D20918D1437308291BD00120FFF75F
:104FA00081FFBFF35F8F637B23F060036373284B44
:104FB0009B68A34245D1EFF30583002B41D13046D6
:104FC000BDE8F041FCF7AEB903F07F03437303F093
:104FD00076FBE1E7A36813B1204603F078FB04F108
:104FE000180003F07FFCA56D04F15807AF4211D003
:104FF0004FF0000875B1284603F069FB05F1180071
:1050000003F070FC2846C5F87C80FFF781FFA56D92
:10501000AF42EFD10E4FBB689C42BFD1EFF3058387
:10502000002BBBD00120FFF73DFF40F20113094DDB
:10503000AB8100232846C5E9193300F0FFFBBD60B2
:10504000AFE786F31188BFF36F8FBDE8F08100BF33
:10505000101100202809002070B590F90D2001469C
:10506000002A437B04DA03F07F03437303F027FB3A
:10507000154A4B7B104663F07F034B7350F8183F83
:10508000D469834208BF002323B9C1E90004216029
:10509000D1610CE091F90E5093F90E60B5420ED03B
:1050A000AE420CDD5868C1E900300160596090687B
:1050B000BDE87040431A58425841FFF7F3BE9C4286
:1050C000E3D01B68E0E700BF10110020F8B5124BD9
:1050D0000C46DDE9067611469868104A1060EFF339
:1050E0001182202282F31288BFF36F8F9D682846B9
:1050F00003F0F7FAB6F1FF3F08BFB7F1FF3F06D064
:105100003A463346064905F1180000F06DFA20468C
:10511000BDE8F840FCF706B9101100203811002056
:10512000E9870000F8B50446EFF31186202383F3E6
:105130001288BFF36F8F437B49B2DA0619D18569B4
:10514000BDB903F07F03437303F0B9FA437B164AFA
:1051500063F07F0343731346817353F8180F98422B
:1051600018BF0546D0695DB9C4E900300460D46158
:1051700011E00020A17386F31188BFF36F8FF8BD93
:1051800095F90E70B9420BD08F4209DD6B68C4E906
:1051900000531C606C600120FFF784FE0120EAE7E9
:1051A000A842E1D02D68DEE71011002049B9EFF3E5
:1051B000058030B9054B5A699B689A4201D0FCF7CB
:1051C000B1B881F31188BFF36F8F704710110020C1
:1051D00010B5EFF31184202282F31288BFF36F8F92
:1051E000427B510704D484F31188BFF36F8F10BD45
:1051F00022F004024273FFF78BFE2146BDE8104007
:105200000148FFF7D3BF00BF4C130020034648B945
:10521000EFF3058232B9064A51699268914201D092
:10522000FCF780B883F31188BFF36F8F704700BF1E
:1052300010110020EFF31181202383F31288BFF3B4
:105240006F8F054B9A68D37B013BD37381F3118831
:10525000BFF36F8F704700BF1011002038B5EFF318
:105260001185202484F31288BFF36F8F0A4B00202E
:105270009A68D37B0133D373FFF714FE85F311884B
:10528000BFF36F8FEFF3118084F31288BFF36F8F3A
:10529000BDE83840FFF7BABF10110020024B03F100
:1052A0001802C3E90622704710110020F8B5EFF389
:1052B0001185202383F31288BFF36F8F1949886803
:1052C000437B03F07F03437303F0F9F908468B68CF
:1052D0005A7B62F07F025A7350F8182FCC698242D1
:1052E00008BF002222B9C3E900042360CB610CE0AF
:1052F00093F90E6092F90E70BE420ED0B7420CDDEB
:105300005168C3E900210B6053600120FFF7CAFD1B
:105310002846BDE8F840FCF705B8A242E3D0126881
:10532000E0E700BF1011002050EA01032DE9F04131
:1053300005460E4603D1FFF7B9FF00202BE0831C82
:1053400071F1FF3329DB03F0E2FA2C18EFF3118837
:10535000202383F31288BFF36F8F124F124BB8686C
:105360001860FFF7BDFDB86810492A46334618306B
:1053700000F03AF9BA684046537B43F01003537388
:10538000FBF7D0FF03F0C3FA201A63EB03030128F5
:1053900073F10003D1DBBDE8F0816FF00104241A42
:1053A000D4E700BF1011002038110020E987000069
:1053B000B1F1FF3F08BFB0F1FF3F08B506D10A4B7E
:1053C000986803F0C5F94FF0FF3008BDFFF7ACFF58
:1053D0004FF47A7147F6FF730022C0FB0132D80BFD
:1053E00040EA4240F1E700BF10110020014B9868ED
:1053F000704700BF10110020D3B5DDE90667089C97
:10540000CDE90067FFF762FE1CB1034B9B685B6947
:10541000236002B0D0BD00BF101100200122044B58
:10542000C01A044BC0105843034B1A54704700BFB6
:10543000A8090020ABAAAAAA4C130020C3897F2B7D
:1054400012D80A4B1B6863B1094B90F90E201B68F8
:105450009A4209DB437BDB0606D1064BC31A18BF11
:10546000012303F0010070470023FAE740110020F8
:105470003C1100208807002070B50E4B0E4C1E7C9E
:10548000054606EB460304EBC304204603F02AFA64
:1054900000220A4B28469A55FFF7D0FF48B1084B27
:1054A0002046BDE870401A680649013AD31700F05B
:1054B0009BB870BD10110020A80900204C130020DB
:1054C000401100201D54000038B5EFF31185202352
:1054D00083F31288BFF36F8F104B114A9C681068DA
:1054E000A04206D1FFF7C8FF85F31188BFF36F8F85
:1054F00038BD00211B7C11600A4AD35C002BF3D01D
:105500002046FFF79BFF0028EED0637BDB0602D12D
:105510002046FFF7A1FD2046E4E700BF1011002060
:10552000381100204C13002008B50648064A0749E8
:10553000121A02F0F4FEBDE80840054A0549064883
:1055400002F0EDBE000000204C030020F0940000AB
:1055500000000000F094000000000020034B1B68D6
:105560000BB9FDF797BC0020704700BF4411002025
:1055700030B570B10B4B5B6898420AD0036843B1F9
:10558000D3E90421D0E90445121941EB0501C3E92F
:105590000421D0E9003213605A600023C0E90033CF
:1055A00030BD00BF7801002010B50E4B1C689C4236
:1055B00004D1FFF7D3FF6FF0004010BDFFF7CEFF1F
:1055C000002CF8D0D4E904321B1A62EBE072B3F17C
:1055D000004F72F10001EEDA002AACBF184600203D
:1055E000EBE700BF78010020B3F1FF3F08BFB2F145
:1055F000FF3FF8B504461D4616465ED08160EFF3C6
:105600001187202383F31288BFF36F8F013275F166
:10561000FF3324DA6FF001032D49D1E900209B1AF2
:105620004FF0FF3262EB00009E1B60EB0500012E85
:1056300070F1000301DA01260020C4E90460254E60
:10564000D6F800C07568B44508BF4FF0000CBCF137
:10565000000F0DD1C4E900652C6074601CE0FFF7F9
:105660007DFF013645F10005361845EBE070E4E7B3
:10567000DCE90420D4E90431934271EB000E1DDA19
:10568000D21ADCF8043060EB0100CCE90420C4E954
:1056900000C31C60CCF804403368B34209D09C427C
:1056A00007D10D4B1C6824B9FFF77EFF2146FDF79B
:1056B000C3FB87F31188BFF36F8FF8BD9B1A61EBB3
:1056C0000001AC45C4E90431C4D0DCF800C0BEE739
:1056D000C009002078010020441100202DE9F84F76
:1056E000EFF3118C202383F31288BFF36F8FDFF861
:1056F000B0A0DFF8B0900024C9F80000DAF800008C
:105700000025504508BF0020274FE046D7E900217B
:10571000D9F8003078B3D0E9046C4FEAE37EB342A5
:105720007EEB0C0B05DAF61A6CEB0E04C0E9046490
:1057300021E0B21841EBE671C0E90445C7E9002158
:10574000FFF716FF88F31188BFF36F8F83689847C0
:10575000EFF31188202383F31288BFF36F8FD9F8FA
:105760000030DAF800009B1B5045C446C9F80030F1
:10577000CBD1D7E9002100249A1841EBE373C7E9A4
:105780000023C9F80040FFF70FFF2146FDF754FB47
:1057900088F31188BFF36F8FBDE8F84FFFF794BE11
:1057A0007801002044110020C009002010B5EFF35B
:1057B0001184202383F31288BFF36F8FFFF7CEFE8F
:1057C0000346054AD2E90001181841EBE37184F35E
:1057D0001188BFF36F8F10BDC009002038B5034694
:1057E000EFF31185202282F31288BFF36F8FC1601F
:1057F000012181600068834206D185F31188BFF3DF
:105800006F8F0024204638BDD0E9003213605A6003
:105810000023C0E9003303F0C3F8294604460248D8
:10582000FFF7C4FCEEE700BF4D1300200A46014617
:10583000014803F015B900BFF0010020014B0367D8
:10584000704700BFF001002038B504460D4602F055
:105850002BFF20B9064B9B681B6F0BB938BD054B5E
:105860002A4621461846BDE8384003F0F9B800BF83
:1058700010110020F001002010B50A4C23681BB164
:1058800001232360002010BD00F0F4F80028F7D0B9
:105890000138072803D8044B53F8200010BD0348F3
:1058A00010BD00BF48110020E8910000FE8FFFFFEF
:1058B000BFF34F8F0549064BCA6802F4E0621343F9
:1058C000CB60BFF34F8F00BFFDE700BF00ED00E0EE
:1058D0000400FA0530B44FF0FE3200250B4B0C4C9F
:1058E0000C494968C3F80024C3F80424C3F8082409
:1058F000C3F80C24C3F81024C3F81424C3F81824E4
:10590000C3F81C24C4F8005530BC0847005084502C
:105910000040845080010020024BD0E90012C3E90E
:10592000001270478001002010B5044650B1636832
:1059300013F0685F05D0064A934202D000236260EC
:10594000236010BD034B04485B689847EFE700BF36
:105950002C5F5CA98001002008920000C8B1436858
:105960000D4A934213D013F0685F0ED0012350E824
:10597000002F194640E8001C9CF0000FF7D1012AC7
:10598000F5D0BFF35F8F002070470448704704488C
:1059900070476FF4E04070472C5F5CA9E98FFFFF10
:1059A000EA8FFFFF034680B1426809498A420AD064
:1059B00012F0685F05D0BFF35F8F002210461A60B7
:1059C000704704487047044870476FF4E0407047E0
:1059D0002C5F5CA9E98FFFFFEA8FFFFF10B504463B
:1059E00020B10023034A2360626010BD0248FFF724
:1059F00071FFF6E73A00003A3092000070B5194C9A
:105A0000D0F804C00668C4F804C0D0F808C0C06864
:105A1000C4F808C0E06026600868134B134D186096
:105A20004868D5F818215860886812F0685F986057
:105A3000C8680969D860196112D000230C4A05F5BD
:105A40008A70C5F81431C5F8B831C5F81821C5F801
:105A5000BC21B047236805F5DC70BDE870401847ED
:105A600070BD00BF9C010020880100206011002053
:105A70002C5F5CA908B500F011F830B900F010F8FF
:105A800038B9054AC2F80C0A08BD00F037F80320FF
:105A900008BD042008BD00BF00508450002070479E
:105AA00010B5114800F048F800B110BD0F4800F0E3
:105AB00043F80028F9D10E4C204600F03DF80028AC
:105AC000F3D10C4B0C481C6000F036F8014600285E
:105AD000EBD100F02DF8044608B1204610BD00F0CF
